:03000000024B5A56
:0C4B5A00787FE4F6D8FD758120024BA1A5
:1000030000000000000000000000000000000000ED
:100013000000000808080808080800001818000075
:1000230000486C24120000000000000000000000E3
:100033000000002424247F1212127F1212120000E7
:100043000000081C2A2A0A0C1828282A2A1C080837
:1000530000000022251515152A5854545422000077
:100063000000000C1212120A76252911916E00006D
:10007300000606040300000000000000000000006A
:10008300004020101008080808080810102040003D
:1000930000020408081010101010100808040200D1
:1000A3000000000008086B1C1C6B0808000000001F
:1000B30000000000080808087F080808080000007E
:1000C300000000000000000000000000060604031A
:1000D3000000000000000000FE000000000000001F
:1000E3000000000000000000000000000606000001
:1000F3000000804040202010100808040402020081
:1001030000000018244242424242424224180000A6
:10011300000000080E08080808080808083E000048
:100123000000003C4242422020100804427E0000AE
:100133000000003C4242201820404042221C0000A4
:10014300000000203028242422227E202078000072
:100153000000007E0202021A26404042221C0000D8
:10016300000000382402021A2642424224180000EA
:100173000000007E2222101008080808080800006A
:100183000000003C4242422418244242423C000008
:10019300000000182442424264584040241C0000DE
:1001A30000000000000018180000000018180000EC
:1001B3000000000000000008000000000008080420
:1001C3000000004020100804020408102040000032
:1001D3000000000000007F0000007F00000000001E
:1001E3000000000204081020402010080402000050
:1001F3000000003C42424640201010001818000046
:100203000000001C225A555555552D42221C000052
:100213000000000808181414243C224242E700009E
:100223000000001F2222221E22424242221F0000FF
:100233000000007C4242010101010142221C000036
:100243000000001F2242424242424242221F00005B
:100253000000003F4212121E12120242423F0000EF
:100263000000003F4212121E121202020207000097
:100273000000003C2222010101712122221C000006
:10028300000000E7424242427E42424242E700000F
:100293000000003E0808080808080808083E000097
:1002A3000000007C10101010101010101010110F0F
:1002B3000000007722120A0E0A121222227700008F
:1002C300000000070202020202020202427F000053
:1002D30000000077363636362A2A2A2A2A6B00008F
:1002E300000000E346464A4A525252626247000007
:1002F3000000001C2241414141414141221C0000B8
:100303000000003F424242423E0202020207000056
:100313000000001C2241414141414D53321C600009
:100323000000003F4242423E1212222242C7000016
:100333000000007C4242020418204042423E00007A
:100343000000007F4908080808080808081C000086
:10035300000000E74242424242424242423C000025
:10036300000000E742422224241414180808000065
:100373000000006B494949495555362222220000A5
:10038300000000E7422424181818242442E7000040
:10039300000000772222141408080808081C000033
:1003A3000000007E2120101008040442423F000098
:1003B30000780808080808080808080808087800EA
:1003C3000000020204040808081010202020404006
:1003D300001E1010101010101010101010101E001E
:1003E300003844000000000000000000000000008E
:1003F300000000000000000000000000000000FFFB
:1004030000060800000000000000000000000000DB
:10041300000000000000003C4278444242FC00001F
:10042300000000030202021A26424242261A00007A
:1004330000000000000000384402020244380000BB
:1004430000000060404040784442424264D80000CB
:10045300000000000000003C427E0202423C00001B
:10046300000000F08808087E08080808083E00001D
:10047300000000000000007C22221C023C42423C9F
:10048300000000030202023A4642424242E70000F1
:100493000000000C0C00000E08080808083E0000CD
:1004A3000000003030000038202020202020221EB1
:1004B3000000000302020272120A161222770000E1
:1004C3000000000E0808080808080808083E000095
:1004D300000000000000007F9292929292B7000009
:1004E300000000000000003B4642424242E7000099
:1004F300000000000000003C42424242423C000037
:10050300000000000000001B26424242221E020798
:10051300000000000000007844424242447840E07A
:1005230000000000000000774C040404041F0000D6
:10053300000000000000007C42023C40423E0000FC
:10054300000000000008083E080808080830000002
:1005530000000000000000634242424262DC0000EF
:1005630000000000000000E74224241408080000F3
:1005730000000000000000EB49495555222200000D
:10058300000000000000007624181818246E0000F4
:1005930000000000000000E74224241418080807A4
:1005A300000000000000007E22100808447E0000C6
:1005B30000C0202020202010202020202020C00048
:1005C3001010101010101010101010101010101028
:1005D30000060808080808100808080808080600A4
:1005E3000C32C20000000000000000000000000008
:1005F30000000000000000000000000000000000F8
:1006030000000000000000000000000000000000E7
:1006130000000000000000000000000000000000D7
:1006230000000000000000000000000000000000C7
:1006330000000000000000000000C001C001C00174
:10064300C001C001C001C0018000800080008000A3
:100653008000800080000000000000000000800196
:10066300C003C00380010000000000000000000080
:10067300000000000000E01CE01CF01E700E3807B4
:1006830018030801840000000000000000000000BF
:100693000000000000000000000000000000000057
:1006A3000000000000000000000000000000000047
:1006B30000000000000000000000000020102010D7
:1006C300201020102010FE7FFE7F10081008100855
:1006D3001008100810081008FE7FFE7F08040804A5
:1006E30008040804080400000000000000000000E3
:1006F300000000000000000000010001C0076019B5
:10070300103118311839183938017001E001C0036C
:100713008007000F001D003900311C311C310C31E2
:100723000C11180DE007000100010001000000009A
:100733000000000000000000000000001C1036183C
:100743006308630C63046304630263026301361D7D
:100753009C3780228063406340632063206330635F
:1007630010221836081C00000000000000000000E2
:10077300000000000000000000000000F0009801ED
:100783008C018C018C018C018C00CC007800183E0C
:100793001C083608320863046304C304C303834399
:1007A30006438E26781C00000000000000000000B5
:1007B3000000000000001C003C003C003000300042
:1007C30010000C0006000000000000000000000004
:1007D3000000000000000000000000000000000016
:1007E3000000000000000000000000000000000006
:1007F3000000000000000040002000100008000C72
:10080300000400060003000300038001800180014F
:100813008001800180018001800100030003000347
:1008230000060006000C0008001000200040000035
:100833000000000000000200040008001000300067
:1008430020006000C000C000C00080018001800162
:1008530080018001800180018001C000C000C000D0
:100863006000600030001000080004000200000077
:100873000000000000000000000000000000000075
:1008830000018003800300011C713C79783DC0079F
:100893000001C007783D3C791C710001800380038F
:1008A30080010000000000000000000000000000C4
:1008B3000000000000000000000000000000000035
:1008C300000000010001000100010001000100011E
:1008D300FC7F000100010001000100010001000193
:1008E3000000000000000000000000000000000005
:1008F30000000000000000000000000000000000F5
:1009030000000000000000000000000000000000E4
:1009130000000000000000000000000000000000D4
:100923001C003C003C003000300010000C000600AE
:1009330000000000000000000000000000000000B4
:1009430000000000000000000000000000000000A4
:10095300FE7F000000000000000000000000000017
:100963000000000000000000000000000000000084
:100973000000000000000000000000000000000074
:100983000000000000000000000000000000000064
:10099300000000000000000000000000000018003C
:1009A3003C003C00180000000000000000000000B4
:1009B3000000000000000040006000200030001034
:1009C30000180008000C00040006000200030001E8
:1009D30080018000C0004000600020003000100053
:1009E300180008000C0004000600020000000000CC
:1009F300000000000000000000000000C007600CC1
:100A030030181830183018200C600C600C600C6023
:100A13000C600C600C600C600C60182018301830EF
:100A23003018600CC0070000000000000000000048
:100A33000000000000000000000000000001800131
:100A4300F801800180018001800180018001800123
:100A5300800180018001800180018001800180018B
:100A63008001C003F81F0000000000000000000028
:100A7300000000000000000000000000E007101C60
:100A83000818043004300C300C3000300018000813
:100A930000040002000180004000202010200820F4
:100AA3000430FC1FFC1F00000000000000000000D9
:100AB300000000000000000000000000E003180E2A
:100AC3000C0C0C180C180C180018000C0006C003B2
:100AD300000E00180010003000300C300C300C10E9
:100AE3000C18180CE00300000000000000000000D8
:100AF300000000000000000000000000000C000ED9
:100B0300000E000F800E800E400E600E200E100EA1
:100B1300100E080E040E040EFE7F000E000E000ED3
:100B2300000E000E000EC07F000000000000000059
:100B3300000000000000000000000000F03FF03F54
:100B430010001000100008000800C807280C18182F
:100B5300081000300030003000300C300C30041826
:100B63000418080CF003000000000000000000005F
:100B7300000000000000000000000000800FC01013
:100B8300203010301800180008000C008C0F6C186F
:100B93003C301C600C600C600C600C60186018200A
:100BA30030306018C00700000000000000000000A3
:100BB300000000000000000000000000F83FF83FC4
:100BC3001C100C08040804040004000200020001C5
:100BD30000010001800080008000C000C000C00050
:100BE300C000C000C00000000000000000000000C2
:100BF300000000000000000000000000E007300CCF
:100C030018180C300C300C301C3038187008E00702
:100C1300B007180E0C1C06380630063006300630B6
:100C23000C18180CE0030000000000000000000096
:100C3300000000000000000000000000E0031804B2
:100C43000C080C180610063006300630063006383D
:100C53000C3C1836F03100300018001800180C0C4A
:100C63000C060C03F001000000000000000000006F
:100C73000000000000000000000000000000000071
:100C8300000000000000000000008001C003C0035A
:100C9300800100000000000000000000000080014F
:100CA300C003C0038001000000000000000000003A
:100CB3000000000000000000000000000000000031
:100CC30000000000000000000000C000C0000000A1
:100CD3000000000000000000000000000000000011
:100CE3000000C000C0008000800040004000000001
:100CF30000000000000000000000002000100008B9
:100D03000004000600038001C000600030001800EA
:100D13000C00180030006000C000800100030006D2
:100D23000004000800100020000000000000000084
:100D330000000000000000000000000000000000B0
:100D430000000000000000000000FE7F0000000023
:100D5300000000000000FE7F000000000000000013
:100D63000000000000000000000000000000000080
:100D73000000000000000000000004000800100054
:100D830020006000C000800100030006000C001872
:100D930000300018000C000600038001C000600052
:100DA3002000100008000400000000000000000004
:100DB30000000000000000000000C00730180830E9
:100DC30008600C601C601C601C600030001C000686
:100DD300000180008000800080000000000080018E
:100DE300C003C003800100000000000000000000F9
:100DF300000000000000000000000000C0076018B1
:100E0300103018200C2F8C4D864CC64CC64C664CAB
:100E130066446644662666266615CC1C0C4008208C
:100E230018303018C0070000000000000000000068
:100E3300000000000000000000000001C001C0012C
:100E4300C001400160032003200320033006100685
:100E530010061006F80F080C080C080C0C0C0418EC
:100E6300041806181F7C00000000000000000000AA
:100E7300000000000000000000000000FE07181C36
:100E8300183818301830183018301818180CF8079C
:100E93001818183018201860186018601860186047
:100EA30018301818FE0F00000000000000000000BA
:100EB300000000000000000000000000C0276038B0
:100EC300103018200C400C400400060006000600F9
:100ED300060006000600060006000C400C400C202D
:100EE30018303018C00700000000000000000000A8
:100EF300000000000000000000000000FE03180EC8
:100F030018181830183018301860186018601860F6
:100F130018601860186018601860183018301810BE
:100F23001818180EFE030000000000000000000067
:100F3300000000000000000000000000FE3F183029
:100F4300182018601840180018081808180CF80F13
:100F5300180C180818081800180018001840184032
:100F630018201830FE3F00000000000000000000C1
:100F7300000000000000000000000000FE7F187069
:100F8300184018C018801800181018101818F81FE7
:100F93001818181018101800180018001800180056
:100FA300180018007E000000000000000000000090
:100FB300000000000000000000000000C013701CCF
:100FC300101018100C200C20040006000600060068
:100FD3000600060006FC063006300C300C301830D4
:100FE30018303008C00700000000000000000000B7
:100FF3000000000000000000000000003F7E0C180D
:101003000C180C180C180C180C180C180C180C18BD
:10101300FC1F0C180C180C180C180C180C180C18B6
:101023000C180C183F7E00000000000000000000B8
:10103300000000000000000000000000F81F800115
:101043008001800180018001800180018001800195
:101053008001800180018001800180018001800185
:1010630080018001F81F0000000000000000000064
:10107300000000000000000000000000E07F000608
:10108300000600060006000600060006000600062D
:10109300000600060006000600060006000600061D
:1010A30000060006000600060E060E038E01FC0075
:1010B3000000000000000000000000007E7C181803
:1010C3001808180418061802180198019801D80185
:1010D300B803380318071806180E180C181C18182C
:1010E300183018307EFC00000000000000000000F3
:1010F3000000000000000000000000007E00180057
:10110300180018001800180018001800180018001C
:10111300180018001800180018001800184018408C
:1011230018201830FE3F00000000000000000000FF
:101133000000000000000000000000001FF81C3841
:101143001C381C381C3C3434343434343436743254
:101153006432643264326431C431C431C431C43062
:10116300C43084309FFC0000000000000000000039
:101173000000000000000000000000001F7C1C10A5
:101183003C103410341074106410E410C410C411F3
:1011930084118413041304170416041E041C041C72
:1011A300041C04181F1800000000000000000000C9
:1011B300000000000000000000000000C003300C2D
:1011C300181808100C300C300660066006600660C4
:1011D300066006600660066006600C200C3008108E
:1011E3001818300CC00300000000000000000000CD
:1011F300000000000000000000000000FE0F1818AF
:1012030018301860186018601860186018301818C3
:10121300F80F18001800180018001800180018001C
:10122300180018007E00000000000000000000000D
:10123300000000000000000000000000C003300CAC
:1012430018180C100C300C2006600660066006604F
:1012530006600660066006600660E4612C331C329B
:101263001816300EC007004C007C00380000000048
:10127300000000000000000000000000FE07181C32
:10128300183818301830183018301818180CF80798
:1012930098031803180718061806180E180C180CCC
:1012A300181C18187E7800000000000000000000E1
:1012B300000000000000000000000000E0273038BC
:1012C30018300C200C200C000C0018007800E003F0
:1012D300800F001E00380070006004600460086026
:1012E30018303818C80F000000000000000000008C
:1012F300000000000000000000000000FC3F8C2103
:1013030084618241824180018001800180018001EA
:1013130080018001800180018001800180018001C2
:1013230080018001E00700000000000000000000D1
:101333000000000000000000000000003F7C0C10D3
:101343000C100C100C100C100C100C100C100C10BA
:101353000C100C100C100C100C100C100C100C10AA
:1013630008083804E003000000000000000000004B
:101373000000000000000000000000003EF81820FC
:10138300182018203010301030103010600860081A
:101393006008E00CC004C004C00480038003800321
:1013A30080030001000100000000000000000000B5
:1013B300000000000000000000000000DFF3866171
:1013C300862186218C210C218C238C138C138C1366
:1013D3004C1358125816580E380E380E380E300C5F
:1013E30010041004100400000000000000000000BE
:1013F3000000000000000000000000007E3E18080E
:1014030038083004300470026002E001C001C001FA
:10141300800180034003400720062006100C100CB7
:10142300081808183E7C00000000000000000000BF
:101433000000000000000000000000007E7C1C1083
:10144300181018083008300C700460046002C002E1
:10145300C002C00180018001800180018001800100
:1014630080018001E0070000000000000000000090
:10147300000000000000000000000000F83F181802
:101483000818040C040E0006000700038003800103
:10149300C001C000E0006000700030003820182058
:1014A3001C100C18FE1F00000000000000000000CC
:1014B300000000000000C03F40004000400040002A
:1014C3004000400040004000400040004000400019
:1014D3004000400040004000400040004000400009
:1014E30040004000400040004000C03F00000000BA
:1014F30000000000000000000000080018001800B1
:10150300100030002000600060004000C000800038
:1015130080018001000100030002000600060004B0
:10152300000C000800180018001000300020000014
:10153300000000000000FC030002000200020002A1
:101543000002000200020002000200020002000288
:101553000002000200020002000200020002000278
:1015630000020002000200020002FC03000000006F
:101573000000000000008007C006200810100000D3
:101583000000000000000000000000000000000058
:101593000000000000000000000000000000000048
:1015A3000000000000000000000000000000000038
:1015B3000000000000000000000000000000000028
:1015C3000000000000000000000000000000000018
:1015D3000000000000000000000000000000000008
:1015E3000000000000000000000000000000FFFFFA
:1015F3000000000000007800C000000100000000AF
:1016030000000000000000000000000000000000D7
:1016130000000000000000000000000000000000C7
:1016230000000000000000000000000000000000B7
:1016330000000000000000000000000000000000A7
:1016430000000000000000000000F00318060C0C6E
:101653000C0C000C800F700C1C0C0C0C060C060CF4
:10166300064C0C4FF838000000000000000000009A
:101673000000000000000000000010001E00180021
:1016830018001800180018001800180FD818383060
:1016930038601860186018601860186018601820A7
:1016A30038307818C8070000000000000000000070
:1016B3000000000000000000000000000000000027
:1016C30000000000000000000000C007700C1818A4
:1016D30018180C180C000C000C000C000C2018201F
:1016E30018103008C00700000000000000000000D0
:1016F300000000000000000000000010001E0018A1
:1017030000180018001800180018E01B301C1818E7
:1017130018180C180C180C180C180C180C1808189E
:10172300181C307AE00900000000000000000000EF
:1017330000000000000000000000000000000000A6
:1017430000000000000000000000C007300C181863
:1017530008100C300C30FC3F0C000C000C0018205F
:1017630018107018C00700000000000000000000FF
:10177300000000000000000000000000003E80C3E5
:1017830080C0C0C0C000C000C000FC1FC000C000BB
:10179300C000C000C000C000C000C000C000C00046
:1017A300C000C000F80F00000000000000000000AF
:1017B3000000000000000000000000000000000026
:1017C30000000000000000000000C077306C10181B
:1017D3001818181818181018300CF00718001800EB
:1017E300F00FF03F08700C600C600C603838E00FAD
:1017F3000000000000000000000010001E001800A0
:1018030018001800180018001800980FD81838305E
:101813001830183018301830183018301830183085
:10182300183018307EFC00000000000000000000AB
:10183300000000000000000000000000800380039F
:1018430080030000000000000001F8018001800116
:10185300800180018001800180018001800180017D
:1018630080018001F81F000000000000000000005C
:1018730000000000000000000000000000380038F5
:1018830000380000000000000010801F001800183E
:101893000018001800180018001800180018001885
:1018A30000180018001800180018180C1806F00388
:1018B3000000000000000000000010001E001800DF
:1018C30018001800180018001800183E180C180605
:1018D300180318019801D801380318071806180CC3
:1018E300181C18187E7C0000000000000000000097
:1018F300000000000000000000000001F80180016A
:1019030080018001800180018001800180018001CC
:1019130080018001800180018001800180018001BC
:1019230080018001F81F000000000000000000009B
:1019330000000000000000000000000000000000A4
:1019430000000000000000000800EE1C9C338C31F6
:101953008C318C318C318C318C318C318C318C319C
:101963008C318C31DE7B00000000000000000000A1
:101973000000000000000000000000000000000064
:10198300000000000000000010001E0FD8183830BF
:101993001830183018301830183018301830183004
:1019A300183018307EFC000000000000000000002A
:1019B3000000000000000000000000000000000024
:1019C30000000000000000000000C007701C103081
:1019D30018300C600C600C600C600C600C601830EC
:1019E30018303018C007000000000000000000009D
:1019F30000000000000000000000000000000000E4
:101A0300000000000000000010009E0F581838303E
:101A13001820186018601860186018601860183073
:101A230038307818980718001800180018007E003E
:101A330000000000000000000000000000000000A3
:101A430000000000000000000000C023303C1838F4
:101A530018300C300C300C300C300C300C3008309B
:101A63001838303CE033003000300030003000FCE8
:101A73000000000000000000000000000000000063
:101A8300000000000000000060007E3C60666061B2
:101A9300E000E00060006000600060006000600043
:101AA30060006000FE07000000000000000000006E
:101AB3000000000000000000000000000000000023
:101AC30000000000000000000000E027303818305C
:101AD300182018007000E003800F001C043004304D
:101AE3000C301C18EC0F0000000000000000000088
:101AF30000000000000000000000000000000000E3
:101B0300800080008000C000E000FC1FC000C00017
:101B1300C000C000C000C000C000C000C000C020A2
:101B2300C0208011000F0000000000000000000032
:101B330000000000000000000000000000000000A2
:101B4300000000000000000010201E3C1830183078
:101B53001830183018301830183018301830183042
:101B6300183830F4E013000000000000000000000B
:101B73000000000000000000000000000000000062
:101B8300000000000000000000007E3C1818180848
:101B9300380830043004700260026002E001C001C2
:101BA300C001C00080000000000000000000000031
:101BB3000000000000000000000000000000000022
:101BC30000000000000000000000DFF78E630C231C
:101BD3008C238C239813981358165816700E700E76
:101BE300700E20042004000000000000000000002C
:101BF30000000000000000000000000000000000E2
:101C030000000000000000000000FC3E70087004AB
:101C1300E004C002C0018003800340076006200C7B
:101C2300100C18183E7E00000000000000000000A9
:101C330000000000000000000000000000000000A1
:101C4300000000000000000000007E7C1818180847
:101C530030083008300460046004C002C002C002CF
:101C63008001800180018000800080004C003C00E6
:101C73000000000000000000000000000000000061
:101C830000000000000000000000FC1F0C0C040E0C
:101C93000406000380038001C000E00070203020B0
:101CA30038301C18FC1F000000000000000000007A
:101CB30000000000000000300008000400040004DD
:101CC30000040004000400040004000400040002F3
:101CD3008001000200040004000400040004000466
:101CE30000040004000400040004000800300000A5
:101CF30000010001000100010001000100010001D9
:101D030000010001000100010001000100010001C8
:101D130000010001000100010001000100010001B8
:101D230000010001000100010001000100010001A8
:101D33000000000000000C00100020002000200024
:101D43002000200020002000200020002000400070
:101D530080014000200020002000200020002000FF
:101D63002000200020002000200010000C000000B4
:101D730000003800C400864002610022001C0000FD
:101D83000000000000000000000000000000000050
:101D93000000000000000000000000000000000040
:101DA3000000000000000000000000000000000030
:101DB30060AA1410D6D08000800080008000FC1F31
:101DC30084108410841084108410FC1F84108000FD
:101DD300800080008000BEB0F80F0808F80F0808E4
:101DE300F80F8000FF7F0000F80F08080808F80FBD
:101DF30080008410A2204000D4B00000FE3F0220E7
:101E0300F22702200220FA2F222122212221122945
:101E130012290A2E0220FE3F0220B5E7800080002F
:101E23008000FC1F841084108410FC1F8410841015
:101E33008410FC1F845080408040007FD7D3000073
:101E4300FE1F00080004000280018000FF7F800065
:101E530080008000800080008000A000400061724C
:101E6300129ED6D0000000000000001800000800F9
:101E7300000800000800080818F8FF1F18081818C1
:101E83000818180818180818180818180818F8FF58
:101E93001F080808000800000800000800000800E8
:101EA300001800001800001800000000BEB0000079
:101EB30000000000400006C0FF07400006C0FF0707
:101EC300400006C0FF07400802003000FEFF3F004D
:101ED3000000C0FF07C00002C00002C00002C0FF34
:101EE3000380100080110160100E3010180C1E309A
:101EF300001C00000000D4B0000000000000080037
:101F030030F8FF1F08001008C010083F1008001029
:101F1300080010080013C8FF100822100822100838
:101F2300221008221008211208211488601648C0C4
:101F330013280010080010F8FF1F0800100000000D
:101F4300B5E70000000000000018000008000008CA
:101F530000000800F0FF0F10080410080410080424
:101F6300100804F0FF0710080410080410080410F8
:101F73000804F0FF0710080000081000081000080C
:101F83002000183000F01F000000D7D3000000002D
:101F93000000000004F0FF0F00000600000100C075
:101FA30000002800001800001800001830FEFF7F12
:101FB30000180000180000180000180000180000A6
:101FC3001800001800001800001800001F00000C83
:101FD30000000000628A1014D6D000000000000048
:101FE30000000080000000800100008001000080EC
:101FF300010000800100008001001080010CF0FF4F
:10200300FF0F3080010430800104308001043080F0
:1020130001043080010430800104308001043080E9
:102023000104F0FFFF0730800104308001040080C9
:102033000100008001000080010000800100008099
:102043000100008001000080010000800100008089
:1020530001000080000000000000BEB0000000008E
:1020630000000000000000000001800100FFFF01EC
:10207300000380010003800100FFFF0100038001D2
:102083000003800100FFFF010081810000000300C5
:102093000000031CFCFFFF3F000040000003C001E1
:1020A30000FFFF010003C0000003C0000003C000E5
:1020B30000FFFF000001410000040100000E710059
:1020C30000078101800101076000010E1898011CBF
:1020D30004E0011800C0000000000000D4B00000BC
:1020E30000000000000000000008F0FFFF1F3000A8
:1020F300000C3000000C3000100C30FE3F0C30049C
:10210300000C3000000C3000000C3000000C3000DC
:10211300C00CF0FFFF0D3030060E3030060C3010CF
:10212300060C3010060C3010060C3018860C3018D4
:10213300860C3008060D300C860D3006EE0F30028B
:10214300FC0D3001000CF000000C3000000CF0FF1F
:10215300FF0F3000000C1000000400000000B5E782
:10216300000000000000000000C0000000C00100EB
:1021730000C0000000C0000000C0000000C000005C
:10218300E0FFFF0360C0000360C0000360C0000302
:1021930060C0000360C0000360C00003E0FFFF03F2
:1021A30060C0000360C0000360C0000360C00003A0
:1021B30060C00003E0FFFF0360C0000160C00000D7
:1021C30000C0000800C0001000C0001000C00018CC
:1021D30000C001380080FF1F000000000000000065
:1021E300D7D3000000000000000000000000000042
:1021F3000003C0FFFF07000080070000C0000000CD
:1022030060000000180000000C0000800300008044
:10221300030000800100008001080080011CFCFF16
:10222300FF3F00800100008001000080010000806A
:102233000100008001000080010000800100008097
:102243000100008001000080010000800100008087
:10225300010000FC010000E000000040000000005D
:02226300000079
:104AAE009014DCEEF0A3EFF0A3ECF0A3EDF0A3EA8C
:044ABE00F0A3EBF086
:104AC200C006C00724FFFBEA34FFFAA3E0FEA3E01E
:104AD20024FFFFEE34FF9014F3F0A3EFF0D007D0E1
:104AE20006124D209014DEE0FFA3E09014E6CFF012
:104AF200A3EFF09014E2E0FEA3E0FFC39014E7E01E
:104B02009F9014E6E09E504F9014DCE0FFA3E090EB
:104B120014E8CFF0A3EFF09014E0E0FEA3E0FFC3AF
:104B22009014E9E09F9014E8E09E501B9014E4E09A
:104B3200FEA3E0FF124D909014E9E004F070D890CB
:104B420014E8E004F080D09014E7E004F070A49040
:074B520014E6E004F0809C72
:014B59002239
:104C7000901592FEE0FCA3E0FDC390158EE09DFD33
:0E4C800090158DE09CFC901590E0FAA3E0FBEF
:104C8E009015A0EEF0A3EFF09015A4EAF0A3EBF0D0
:104C9E009015A2ECF0A3EDF09015A0E0FAA3E0FBC6
:104CAE00FFAE02C007A3E0FFA3E09014F3CFF0A382
:104CBE00EFF0D007124D209015A4E0FEA3E0FF0206
:024CCE004D9007
:0E3CCC009014BAEEF0A3EFF0A3ECF0A3EDF02D
:103CDA00E49014C6F0A3F0A3F0A3F09014BAE0FEA7
:103CEA00A3E0FFC3EB9FFFEA9E9014CAF0A3EFF094
:103CFA009014BCE0FAA3E0FBC39014C1E09BFE90D1
:103D0A0014C0E09A9014CCF0A3CEF09014BAE0FF5D
:103D1A00A3E09014D4CFF0A3EFF0A3EAF0A3EBF062
:103D2A009014CAE0FEA3E0FFD39400EE648094806E
:103D3A00400A9014D0E4F0A304F08021EF4E7008FA
:103D4A009014D0F0A3F0801574FF9014D0F0A3F073
:103D5A00C3E49FFFE49E9014CAF0A3EFF09014CC42
:103D6A00E0FEA3E0FFD39400EE64809480400A90C2
:103D7A0014D2E4F0A304F08027EF4E70089014D216
:103D8A00F0A3F0801B74FF9014D2F0A3F09014CA31
:103D9A00E0FEA3E0FFC3E49FFFE49EA3F0A3EFF0DD
:103DAA009014CCE0FEA3E0FF9014CAE0FCA3E0FD6F
:103DBA00D39FEE6480F8EC6480989014CE4007ECB0
:103DCA00F0A3EDF08005EEF0A3EFF0E49014C4F058
:103DDA00A3F09014CFE02401FF9014CEE03400FE4B
:103DEA00C39014C5E09F9014C4E09E4003023EBFF6
:103DFA009014D4E0FEA3E0FFA3E0FCA3E0FD90143E
:103E0A00C2124C899014CAE0FEA3E0FF9014C7E0E6
:103E1A002FF09014C6E03EF09014CCE0FEA3E0FF31
:103E2A009014C9E02FF09014C8E03EF09014CEE050
:103E3A00FEA3E0FF9014C6E0FCA3E0FDD39FEE646E
:103E4A0080F8EC6480984020ED9FFFEC9E9014C6A9
:103E5A00F0A3EFF09014D0E0FEA3E0FF9014D5E0B9
:103E6A002FF09014D4E03EF09014CEE0FEA3E0FFD1
:103E7A009014C8E0FCA3E0FDD39FEE6480F8EC64E4
:103E8A0080984020ED9FFFEC9E9014C8F0A3EFF0BD
:103E9A009014D2E0FEA3E0FF9014D7E02FF0901424
:103EAA00D6E03EF09014C5E004F070069014C4E029
:053EBA0004F0023DDCF4
:013EBF0022E0
:1049C80090159AEAF0A3EBF0901596EEF0A3EFF0AD
:1049D800A3ECF0A3EDF0C007A3E0FAA3E0FB901569
:1049E80098E0FFA3E09014C0CFF0A3EFF090159EDD
:1049F800E0FFA3E09014C2CFF0A3EFF0D007123C81
:104A0800CC901596E0FAA3E0FBFFAE02C007A3E046
:104A1800FCA3E0FD90159CE0FFA3E09014C0CFF04C
:104A2800A3EFF090159EE0FFA3E09014C2CFF0A38F
:104A3800EFF0D007123CCC90159CE0FCA3E0FD9071
:104A4800159AE0FAA3E0FBA3E0FFA3E09014C0CF1F
:104A5800F0A3EFF090159EE0FFA3E09014C2CFF012
:104A6800A3EFF0901596E0FEA3E0FF123CCC901562
:104A78009AE0FAA3E0FBFFAE02C007901598E0FCAD
:104A8800A3E0FD90159CE0FFA3E09014C0CFF0A335
:104A9800EFF090159EE0FFA3E09014C2CFF0A3EFD3
:064AA800F0D007023CCC37
:10409D0090158BEEF0A3EFF0A3ECF0A3EDF0A3EBF6
:0140AD00F022
:1040AE00E4901592F0A3F0EBFFA3E4F0A3EFF090F1
:1040BE001594E0FEA3E0FFD3901593E09FEE64808D
:1040CE00F8901592E0648098400302423CC390152C
:1040DE008CE09FFF90158BE09E124C70901594E033
:1040EE00FEA3E0FF90158CE02FFF90158BE03E12A3
:1040FE004C70901592E0FEA3E0FFC390158CE09FEC
:10410E00FF90158BE09EFE901594E0FCA3E0FD90D1
:10411E00158EE02DFD90158DE03C124C859015927C
:10412E00E0FEA3E0FFC390158CE09FFF90158BE09F
:10413E009E901594124C73901594E0FEA3E0FF90A0
:10414E00158CE02FFF90158BE03EFE901592E0FC53
:10415E00A3E0FD90158EE02DFD90158DE03C124CE8
:10416E0085901592E0FEA3E0FF90158CE02FFF9056
:10417E00158BE03EFE901594124C74901592E0FE55
:10418E00A3E0FF90158CE02FFF90158BE03EFE9084
:10419E001594E0FCA3E0FD90158EE02DFD90158D9D
:1041AE00E03C124C85901594E0FEA3E0FFC3901501
:1041BE008CE09FFF90158BE09EFE901592E0FCA385
:1041CE00E0FD90158EE02DFD90158DE03C124C8596
:1041DE00901593E004F07006901592E004F090159F
:1041EE0094E0FCA3E0FDFFAE0412344BAA06AB072D
:1041FE00901592E0FCA3E0FDFFAE0412344BEF2BC2
:10420E00FDEE3AFC90158FE0F5F0A4FFD3ED9FE59F
:10421E00F06480F8EC64809850030240BD901595D0
:0E422E00E024FFF0901594E034FFF00240BD54
:01423C00225F
:10464600901571EEF0A3EFF0A3ECF0A3EDF0A3EB61
:10465600F0A3EAF0A3E9F0901575E0FBA3E0FAA356
:10466600E0F9123405700302477D90157CE0641072
:104676007044901573E0FCA3E0FD901578E0FFA36D
:10468600E09014FCCFF0A3EFF090157AE0FFA3E0E2
:104696009014FECFF0A3EFF090157CE0901500F09B
:1046A60090157DE0901501F0901571E0FEA3E0FFF6
:1046B600123A8102475E90157CE06418704A9015A4
:1046C60073E0FCA3E0FDA3E0FBA3E0FAA3E0F9A3FB
:1046D600E0FFA3E0901513CFF0A3EFF090157AE07A
:1046E600FFA3E0901515CFF0A3EFF090157CE090B6
:1046F6001517F090157DE0901518F0901571E0FEF5
:10470600A3E0FF1235E7805090157CE064207067C7
:10471600901573E0FCA3E0FDA3E0FBA3E0FAA3E0A1
:10472600F9A3E0FFA3E090152ACFF0A3EFF09015D0
:104736007AE0FFA3E090152CCFF0A3EFF090157C64
:10474600E090152EF090157DE090152FF0901571E4
:10475600E0FEA3E0FF123834901576E475F00212FD
:10476600345D90157CE0FF901572E02FF090157186
:08477600E03400F002465D2270
:103A81009014F5EEF0A3EFF0A3ECF0A3EDF0A3EBAF
:073A9100F0A3EAF0A3E9F045
:103A98009014F5E0FFA3E090150ACFF0A3EFF090A3
:103AA8001500E0FF131313541F8FF0A4FF9015089F
:103AB800E5F0F0A3EFF0901506E4F0A37405F0E448
:103AC800901504F0A3F0901506E0FEA3E0FF901512
:103AD80004E0FCA3E0FDC39FEC9E4003023CCB90B6
:103AE80014F9E0FBA3E0FAA3E0F9123405FF9014FF
:103AF8001075F022ED1235DBEC75F022A42583F564
:103B080083E06F6003023CBA90000112341EFF90FC
:103B18001504A3E090141175F0221235DBEC75F052
:103B280022A42583F583E06F6003023CBA9014F762
:103B3800E0FCA3E0FD901500E0F9FF7E009014F58D
:103B4800E0FAA3E02FFFEE3ACF24FFFBEF34FFFAB1
:103B5800E9FFA3E0F8A3E02FFFEE38CF24FFCF342E
:103B6800FF9014F3F0A3EFF09014F5E0FEA3E0FF4C
:103B7800124D20E4901502F0901502E0FFD3901545
:103B880009E09F901508E094005003023CBAE490C5
:103B98001503F0901501E0705C901504A3E075F032
:103BA80022A42412F582E43414F583C083C08290E1
:103BB8001502E0D082D0832582F582E43583F5832F
:103BC800E0FD7C00901503E0FF74017E00A8070863
:103BD8008005C333CE33CED8F9FFEE5CFEEF5D4EE1
:103BE80060059014FC80039014FEE0FEA3E0FF1231
:103BF8004D90023CA2901504A3E075F022A4241273
:103C0800F582E43414F583C083C082901502E0D0B5
:103C180082D0832582F582E43583F583E0FD7C003C
:103C2800901503E0FF74017E00A807088005C333E0
:103C3800CE33CED8F9FFEE5CFEEF5D4E60149014E3
:103C4800F5E0FEA3E0FFA3E0FCA3E0FD9014FC1266
:103C58004C899014F6E004F070069014F5E004F036
:103C680090150AE0FEA3E0FFC39014F6E09FFD90D4
:103C780014F5E09EFC901500E07A00B5051CEAB545
:103C880004189014F5EEF0A3EFF09014F8E004F0A7
:103C980070179014F7E004F0800F901503E004F01B
:103CA800E0C394085003023B9B901502E004F00225
:103CB8003B80901505E004F07006901504E004F0D0
:033CC800023ACEEF
:013CCB0022D6
:1035E70090150CEEF0A3EFF0A3ECF0A3EDF0A3EB36
:0735F700F0A3EAF0A3E9F0E4
:1035FE0090150CE0FFA3E0901521CFF0A3EFF09013
:10360E001517E0FF131313541F8FF0A4FF90151F0F
:10361E00E5F0F0A3EFF090151DE4F0A37405F0E4CF
:10362E0090151BF0A3F090151DE0FEA3E0FF901582
:10363E001BE0FCA3E0FDC39FEC9E400302383390D9
:10364E001510E0FBA3E0FAA3E0F9123405FF901287
:10365E009E75F04AED1235DBEC75F04AA42583F524
:10366E0083E06F600302382290000112341EFF9037
:10367E00151BA3E090129F75F04A1235DBEC75F026
:10368E004AA42583F583E06F600302382290150E5D
:10369E00E0FCA3E0FD901517E0F9FF7E0090150CFD
:1036AE00E0FAA3E02FFFEE3ACF24FFFBEF34FFFA50
:1036BE00E9FFA3E0F8A3E02FFFEE38CF24FFCF34CD
:1036CE00FF9014F3F0A3EFF090150CE0FEA3E0FFD3
:1036DE00124D20E4901519F0901519E0FFD39015B6
:1036EE0020E09F90151FE094005003023822E490D2
:1036FE00151AF090151AE0FFC3940840030238190A
:10370E00901518E07056A3E0FE90151BE0FCA3E0A8
:10371E009012A075F04A1235DBEC75F04AA42583A1
:10372E00F583E5822EF582E43583F583E0FD7C009A
:10373E0074017E00A807088005C333CE33CED8F9B6
:10374E00FFEE5CFEEF5D4E60059015138003901545
:10375E0015E0FEA3E0FF124D90023810901519E00F
:10376E00FF90151BE0FCA3E09012A075F04A1235F5
:10377E00DBEC75F04AA42583F583E5822FF582E410
:10378E003583F583E0FD7C0090151AE0FF74017E11
:10379E0000A807088005C333CE33CED8F9FFEE5C00
:1037AE00FEEF5D4E601490150CE0FEA3E0FFA3E06B
:1037BE00FCA3E0FD901513124C8990150DE004F05A
:1037CE00700690150CE004F0901521E0FEA3E0FFCA
:1037DE00C390150DE09FFD90150CE09EFC90151703
:1037EE00E07A00B5051CEAB5041890150CEEF0A3AE
:1037FE00EFF090150FE004F0701190150EE004F04C
:10380E00800990151AE004F0023701901519E004B2
:10381E00F00236E690151CE004F0700690151BE0E1
:05382E0004F002363435
:013833002272
:10383400901523EEF0A3EFF0A3ECF0A3EDF0A3EBCF
:07384400F0A3EAF0A3E9F094
:10384B00901523E0FFA3E0901538CFF0A3EFF09095
:10385B00152EE0FF131313541F8FF0A4FF90153692
:10386B00E5F0F0A3EFF0901534E4F0A37405F0E469
:10387B00901532F0A3F0901534E0FEA3E0FF901505
:10388B0032E0FCA3E0FDC39FEC9E4003023A809024
:10389B001527E0FBA3E0FAA3E0F9123405FF901023
:1038AB001475F082ED1235DBEC75F082A42583F5EF
:1038BB0083E06F6003023A6F90000112341EFF9099
:1038CB001532A3E090101575F0821235DBEC75F014
:1038DB0082A42583F583E06F6003023A6F90152570
:1038EB00E0FCA3E0FD90152EE0F9FF7E0090152380
:1038FB00E0FAA3E02FFFEE3ACF24FFFBEF34FFFA01
:10390B00E9FFA3E0F8A3E02FFFEE38CF24FFCF347D
:10391B00FF9014F3F0A3EFF0901523E0FEA3E0FF6C
:10392B00124D20E4901530F0901530E0FFD3901538
:10393B0037E09F901536E094005003023A6FE49005
:10394B001531F0901531E0FFC394084003023A663D
:10395B0090152FE07056A3E0FE901532E0FCA3E02B
:10396B0090101675F0821235DBEC75F082A425836E
:10397B00F583E5822EF582E43583F583E0FD7C004B
:10398B0074017E00A807088005C333CE33CED8F967
:10399B00FFEE5CFEEF5D4E600590152A80039015DF
:1039AB002CE0FEA3E0FF124D90023A5D901530E043
:1039BB00FF901532E0FCA3E090101675F0821235E3
:1039CB00DBEC75F082A42583F583E5822FF582E489
:1039DB003583F583E0FD7C00901531E0FF74017EAB
:1039EB0000A807088005C333CE33CED8F9FFEE5CB1
:1039FB00FEEF5D4E6014901523E0FEA3E0FFA3E005
:103A0B00FCA3E0FD90152A124C89901524E004F0DC
:103A1B007006901523E004F0901538E0FEA3E0FF4C
:103A2B00C3901524E09FFD901523E09EFC90152E6E
:103A3B00E07A00B5051CEAB50418901523EEF0A347
:103A4B00EFF0901526E004F07011901525E004F0CE
:103A5B008009901531E004F002394E901530E004E6
:103A6B00F0023933901533E004F07006901532E014
:053A7B0004F002388197
:013A80002223
:103EC00090153AEEF0A3EFF0A3ECF0A3EDF0A3EB26
:013ED000F001
:103ED10090153AE0FFA3E090154CCFF0A3EFF090DE
:103EE1001543E0FFC313901546F0E0FB1313135481
:103EF1001F8FF0A4FF90154AE5F0F0A3EFF09015A5
:103F01003EE024E0F090153CE0FCA3E0FDEBFF7EF9
:103F11000090153AE0FAA3E02FFFEE3ACF24FFFB21
:103F2100EF34FFFA901543E0FF90153CE0F8A3E071
:103F31002FFFEE38CF24FFCF34FF9014F3F0A3EF1F
:103F4100F090153AE0FEA3E0FF124D20E4901548F1
:103F5100F0A3F090154AE0FEA3E0FF901548E0FCC5
:103F6100A3E0FDC39FEC9E400302409C901543E0FB
:103F7100F9B4101C90153EE075F010A42403F582ED
:103F8100E5F03400F583E5822DF582E5833C802A56
:103F9100E96420600302409C901548E0FEA3E0FF25
:103FA10090153EE075F040A424F3F582E5F0340568
:103FB100F583E5822FF582E5833EF583E493901541
:103FC10045F0E4901547F0901547E0FFC394084091
:103FD1000302408B901544E0702C047E00A8070872
:103FE1008005C333CE33CED8F9FF901545E0FDEF00
:103FF1005D600590153F8003901541E0FEA3E0FF51
:10400100124D90024082901547E0FF74017E00A896
:1040110007088005C333CE33CED8F9FF901545E0AC
:10402100FDEF5D601490153AE0FEA3E0FFA3E0FC14
:10403100A3E0FD90153F124C8990153BE004F07010
:104041000690153AE004F090154CE0FEA3E0FFC3A2
:1040510090153BE09FFD90153AE09EFC901546E0DF
:104061007A00B5051CEAB5041890153AEEF0A3EFF5
:10407100F090153DE004F0701190153CE004F080E3
:1040810009901547E004F0023FC8901549E004F09B
:0B4091007006901548E004F0023F5458
:01409C002201
:104BE60090157EEEF0A3EFF0A3ECF0A3EDF0A3EBAF
:104BF600F0A3EAF0A3E9F0901582E0FBA3E0FAA3A4
:104C0600E0F9123405FB6061901580E0FCA3E0FD3D
:104C1600901585E0FFA3E090153FCFF0A3EFF0904D
:104C26001587E0FFA3E0901541CFF0A3EFF09015B4
:104C360089E0901543F090158AE0901544F09015A0
:104C46007EE0FEA3E0FF123EC0901589E0C313FF8D
:104C560090157FE02FF090157EE03400F0901583DC
:0A4C6600E475F00112345D808E2227
:074CD000C3EF9E14FD7F0AF3
:084CD7009015A6EFF0A3EDF02B
:104CDF00A31235AA000000019015A7E0FF14F0EF12
:104CEF006020A3E0F8A3E0F9A3E0FAA3E0FB90159E
:104CFF00A6E0FFE4FCFDFE1234739015A812359E5A
:104D0F0080D69015A8E0FCA3E0FDA3E0FEA3E0FF92
:014D1F002271
:10477E00901561EEF0A3EFF0A3ECF0A3EDF0A3EA39
:04478E00F0A3EBF0B9
:10479200E490156FF090156CE0C313901570F0E47F
:1047A20090156DF0901567E0FF90156DE0FEC39FC8
:1047B20040030248A9124CD0A804A905AA06AB07D7
:1047C200901565E0FEA3E0FFE4FCFD1234FEE47BFD
:1047D2000AFAF9F81234FE90156EEBF0A3E0706558
:1047E200901567E014FF90156DE0FEC39F5056A32D
:1047F200E0704C901570E0FFEE8FF0A4FF90156210
:10480200E02FFF901561E035F0FE901563E0FCA308
:10481200E0FD901568E0FBA3E090153FCBF0A3EB21
:10482200F090156AE0FBA3E0901541CBF0A3EBF00A
:1048320090156CE0901543F0E4A3F07B20805C902F
:10484200156F7401F0901570E0FF90156DE08FF018
:10485200A4FF901562E02FFF901561E035F0FEC0D5
:1048620007901563E0FCA3E0FD90156EE02430FB99
:10487200901568E0FFA3E090153FCFF0A3EFF09012
:10488200156AE0FFA3E0901541CFF0A3EFF0901579
:104892006CE0901543F0E4A3F0D007123EC09015EF
:0748A2006DE004F00247A6DF
:0148A90022EC
:0E43B20090154EEEF0A3EFF0A3ECF0A3EDF0AB
:1043C00090155BE0C31390155EF0E4FFFE7DC87CA2
:1043D00042901552E0F8A3E0F9A3E0FAA3E0FB1243
:1043E000327E12338490155FEEF0A3EFF0E4901567
:1043F0005CF0901556E0FF90155CE0FEC39F400313
:104400000244FB124CD0A804A905AA06AB079015DC
:104410005FE0FEA3E0FFE4FCFD1234FEE47B0AFA59
:10442000F9F81234FE90155DEBF0901556E0FF247C
:10443000FEFE90155CE06E7060EF24FEFFE434FF3A
:10444000FE90155EE0FD7C0012344B90154FE02F7E
:10445000FF90154EE03EFE901550E0FCA3E0FD906D
:104460001557E0FBA3E090153FCBF0A3EBF09015C0
:1044700059E0FBA3E0901541CBF0A3EBF090155B66
:10448000E0901543F0E4A3F07B2E123EC090155C43
:10449000E004F0901556E004F090155EE0FF9015F2
:1044A0005CE08FF0A4FF90154FE02FFF90154EE0D9
:1044B00035F0FEC007901550E0FCA3E0FD90155DBF
:1044C000E02430FB901557E0FFA3E090153FCFF0BC
:1044D000A3EFF0901559E0FFA3E0901541CFF0A3B2
:1044E000EFF090155BE0901543F0E4A3F0D00712D5
:0B44F0003EC090155CE004F00243F2B7
:0144FB00229E
:1048AA009014E0EAF0A3EBF09014DCEEF0A3EFF042
:0648BA00A3ECF0A3EDF0F9
:1048C000E49014EBF0A3F0C006C0079014E0E0FE03
:1048D000A3E0FF9014DCE0FAA3E02FFFEA3ECF2430
:1048E000FFFBEF34FFFA9014E2E0FEA3E0FF901428
:1048F000DEE0F8A3E02FFFE83ECF24FFCF34FF90A7
:1049000014F3F0A3EFF0D007D006124D20E490147A
:10491000E7F0A3F09014E0E0FEA3E0FFC39014E8FA
:10492000E09F9014E7E09E40030249C7E49014E939
:10493000F0A3F09014E2E0FEA3E0FFC39014EAE0DD
:104940009F9014E9E09E506B9014ECE025E0FF90FE
:1049500014EBE033FE9014E4E0FBA3E0FAA3E0F9EB
:104960008F828E8312341EFF124DAB9014ECE02523
:10497000E0FF9014EBE033FEEF2401FFE43EFE90F5
:1049800014E4E0FBA3E0FAA3E0F98F828E831234F3
:104990001EFF124DAB9014ECE004F070069014EB87
:1049A000E004F09014EAE004F070889014E9E00468
:1049B000F080809014E8E004F06003024914901441
:0749C000E7E004F0024914D6
:0149C70022CD
:0E4DBD00D2A2E4F5CF75CEDC75CDC0B2CD220A
:044D6D007F647E00E1
:104D7100EF4E60157D087C07ED1DAA0470011C4AE9
:094D810070F6EF1F70EA1E80E7D6
:014D8A002206
:0F4DAE00C2A28FCFE5CD30E7FB75CDC0D2A222D8
:0D4D9E00124DCB7F05124DAB7F3C124DAB8B
:034DAB00024DAE08
:054D8B00FFE03400FE12
:0E4D9000AD07AC06ECFF124DAEAF05024DAE06
:084DCB00C2A4124DAED2A422D5
:104D20009014EDEEF0A3EFF0A3ECF0A3EDF07F2AEA
:104D3000124DCB9014EEE024029014ED124D8BEB4B
:104D40002402FFE43AFE124D907F2B124DCB9014BB
:104D5000F0E024019014EF124D8B9014F4E0240144
:0D4D6000FF9014F3124D8C7F2C124DCB22CE
:1044FC00C2A6124D6DD2A6124D6DD2A0124D6D7F7B
:10450C0011124DCB7F787E00124D717FB1124D9EF2
:10451C007FB2124D9E7FB3124D9E124DA17FB412ED
:10452C004DCB7F03124DAB7FC0124DCB7F28124D6C
:10453C00AB7F08124DAB7F04124DAB7FC1124DCB3C
:10454C001F124DAB7FC2124DCB7F0D124DABE4FF52
:10455C00124DAB7FC3124DCB7F8D124DAB7F2A1208
:10456C004DAB7FC4124DCB7F8D124DAB7FEE124DF8
:10457C00AB7FC5124DCB7F1A124DAB7F36124DCB94
:10458C007FC0124DAB7FE0124DCB7F04124DAB7F41
:10459C0022124DAB7F07124DAB7F0A124DAB7F2E13
:1045AC00124DAB7F30124DAB7F25124DAB7F2A12D3
:1045BC004DAB7F28124DAB7F26124DAB7F2E124D8B
:1045CC00AB7F3A124DABE4FF124DAB0F124DAB7FEC
:1045DC0003124DAB7F13124DAB7FE1124DCB7F0419
:1045EC00124DAB7F16124DAB7F06124DAB7F0D12E9
:1045FC004DAB7F2D124DAB7F26124DAB7F23124D51
:10460C00AB7F27124DAB124DAB7F25124DAB7F2DDF
:10461C00124DAB7F3B124DABE4FF124DAB0F124D65
:10462C00AB7F04124DAB7F13124DAB7F3A124DCBC7
:0A463C007F05124DAB7F29024DCB24
:1022650068080002101000200020011B52656B2930
:10227500D6B6318339A43184294329632963296377
:1022850029632963318352A55AA48BA5DE6EEF100D
:102295005A6A004200410041004200420062006368
:1022A5000083006300630063006200622943C61473
:1022B50052C731A373AB4225296329632963296377
:1022C50029432943296339E4D6B6CE4B7B2593E5CB
:1022D500DEAB21050041004100410042006300637F
:1022E5000062006200420062006200624224D6B7CA
:1022F5004266C63473AA842C738A6B2839E4420576
:10230500318329632963296342046B265264ACAB8C
:10231500CDA9F79C004200420062006200620062A3
:10232500004100420062004200620062BDF1BE143D
:10233500D6B77BECDEF8E719B5B3E6F8B4F2E719E2
:10234500842C39E4318329832983318331C35AA409
:10235500A4A79C8F004200420062006200620062F6
:10236500006200620041004200420041DEF9DF19CF
:10237500DF196B48E738E718EF59FF3AF6F8EF5AD7
:10238500B573DEF852A64A863183318331A34A44B8
:102395008BA5D5EA10A4004100410042006200620D
:1023A5000082108261C58A668A451861E719E719B6
:1023B500DF17CE0FE6D49C4BDE72A30FCDCEFF55B3
:1023C500F779EF5AE719CE565286420439E442446A
:1023D5007325BD685AA90041004100410862A32840
:1023E50030C120811881188118611881B5B1D67363
:1023F500840BF751FFB5EED6DE75FF78FFB68B0C73
:10240500DE52A50EBDB09CACA50C6308BDD36347D9
:102415007326DEB1FFBD0041006120A2516320A1FA
:102425002081188118811881186118617BA6EF3405
:10243500EF14FFB5D5D1F6D3A371F7349C0FFFB7D1
:10244500FF98AD4EF694E671DE71B54FE73AD6B614
:10245500C5F3FFDBFFBE00421082A38871C530C201
:102465002081208118811881188118819427FFD82F
:10247500FFB682E91021006218E418A493ADB531C6
:102485009BEFFF5AF65AEED6EEB4ACCBEF3AE73AED
:10249500F77BFFFCF77B108372244983598238C28E
:1024A500208120812081188118811881B569FFDB81
:1024B5008B2B8A8D39A763B1F7BED6DB000010627E
:1024C500EE96E6BAFFDBBD35ABF1B50CB591E71875
:1024D500F79AE717B5B4CC8E0882CCEB51426182EE
:1024E500208120812081208120812081EF71FFDBE7
:1024F5009B70D6388BCFCE7A20417BF0000018E454
:10250500E69ADDF8F69CE61AFFD9A50CAD0CCE12BD
:10251500FFBADED43947FFDF49227267CC8A72647D
:102525009B08928840E128A128A12081F7D3DE7875
:10253500ABD0E6BACDF78CF5916B81292063DEBA75
:10254500E6BAE69ADE39DE19B472FFB5FF95EEF309
:10255500EF16F7340841106249025162A36941023E
:10256500492228C2BC0828A2BC0830C2F7D3B4F45B
:10257500836EE6BAE6DBB5357B6F2945DEBBE6DA69
:10258500E6BAE6BAB5758410DD97DE70EF54F7D775
:102595008369EED800219369186030E2598230C210
:1025A500598438E24943414372445183DE6E9C129B
:1025B500CDD8E6BAE6BAE6BADEBADEBAE6BBE6BB1F
:1025C500E6BBE6BB18C308414125EEB3E611E73586
:1025D500EF151843002071E530E228A281E6490293
:1025E50093EE71A35A27AB8A69E6D4CBDE6D9C11B5
:1025F500CDF8E6BAE6BAE6BBE6BBE6BBE6BBE6DB8C
:10260500DEDB9C72A24F7B4FD656D5D45186F75D43
:10261500F77A0021002000208206696341229B8C05
:10262500730CA286D659A2E77A465184DEADB4F57D
:10263500C5B7E6BBE6DAE6BBE6DBE6DBEF1CE6DBC9
:10264500E6DBDEBABDF8FFBFF77B392518821062DD
:10265500FFDD08210021002169C528A149C6D659F9
:1026650010A310A1DE799267A308ABA9E6CEDE59C7
:1026750083CFE6BBE6BBE6DBE6DBE6DBE6DBE6DBFC
:10268500E6DBE6DBEEDC3927FFDE30E60021002164
:10269500188408220021002108410882E6BADEBA22
:1026A500F7BF08621062A4D28A46A287E70FF79D9A
:1026B50083D0E6BBE6DBE6DBE6DBB535E6DBE6DB72
:1026C500E6DBE6DBF73D104241882084002100214E
:1026D50000210021002110830883DE9AE6DB39A65C
:1026E5000841CE9B086149C85A679A46E750FFDD05
:1026F500734DE6DBE6DBE6DBE6DBE6DBE6FBE6DBAE
:10270500E6DBEEDCFFBE0821084118830841002006
:10271500002100210041DEDBE6DBE6DBE6DB73556D
:1027250094D3DEDBDE9A8C1051C5A287E773FFFCDC
:1027350083B0732DE6FBEEFBEEFCEF1CEF1CEEFC0D
:10274500F71DFF5883D00041084100410841084169
:102755000841084108A3EF1BEF1CEEFCD69983F056
:10276500DEDAEF1BEEFB8BEFAAE79AA7F7D8FFFAA5
:102775006BD294516B0BEF1BEF1CEF3CEF1C41C868
:10278500F797EF97310608610861086108610861EC
:10279500086108622986EF3CEF3CEF3CEF3CEF3CDB
:1027A500DE9ACE38EF1C416430E230E2FFFBFFD900
:1027B50041E9E73CAC485204C5D5EF5C18E420E498
:1027C500FFF9F7D818A30882108210A20881108299
:1027D50008A208A3634DF75CF75CEF7CEF3CBDB640
:1027E500F75CF75CD67972CA39234163FFFEFFB9FE
:1027F5003125528A99C2FFEA8326D67818E439260C
:10280500FFFAFFD918A210A218C210A210A210C375
:1028150010C319053209F79DF77DBD95CE38F77DB3
:10282500F77DEF1B838C7266D5AE8BCCFFDFFFFC8B
:102835005A2B3186414570E4D407BE1631E849A8C4
:10284500FFFBFFFA18C318C318C218C318C310C377
:1028550018E331E831E8FFBEFFBDFFBDE6DAFFBD95
:10286500DE9972A79B68DDF1C5919C70FFBFFFFDE6
:102875006AEE3A0839C731456125B61829646AAD4B
:10288500FFFFB513210318E31903190321241903C5
:10289500190421453208FFDEFFFEFFDEFFBDBD95B1
:1028A500ACF182C683077B48E73BFFBDEEFDFFFE2B
:1028B500BD79A5B78CF44208F7BEAE39B67BDE9C70
:1028C500FFFF7B4E216521242985216421242124B4
:1028D50021452186428AFFFFFFFECE17C5F6C5D5E5
:1028E5008B48B510AD52BDB4BD946266E6DCFFFE03
:1028F500C5FAC69C424852CB634DBEBBBEBCDEBCCE
:10290500FFFFF79E298531E621642164214429854D
:102915002165320829A6ADD6CE58CE37CE16C5D5F7
:10292500C5F6CE16C5F6C5F6C5B472A6EF3DFFFBD6
:10293500DEDD52CA8C9184B27C51C67AFFFFF7BFA7
:10294500FFFEFFDF31C631C629A529A594D231C5C1
:1029550029A631E629C631E642674A68FFBDD65742
:10296500CE57CE37CE37CE37C5F57AC6F77EFFFBC5
:10297500BDD85B2AC67ABE39C6FCCF1CFFFFFFDF78
:10298500FFFEFFFF3A4831E65B0B31E631E63A06DA
:1029950031E631E631E631E531E532064227CE77DB
:1029A500D678D678D677D677CE568B47FFBFFFFC3D
:1029B500BDD852A752A752C8D75DCEDCF7DFFFDFDF
:1029C500FFFFEF5F42673A6742663A46428752E940
:1029D5003A473A6742873A463A463A266BF17C9639
:1029E5007453DF9FC67AFFDFF7BD942BEF7DFFFEA3
:1029F500CE3A52C64AA65AE7CF1CF7FFEF9ED69BA2
:102A0500FFFFEF7F52E84AC74AC74AE852E842A7A4
:102A150052E84AC74AA74AE76BCA42864AA652E71E
:102A25004AC66BCA6BAB9D95D71CFFFF9C51FFFE39
:102A3500CE39636A5B076B69FFFFE77EDF7EF7DFF1
:102A4500FFFFE6FBDF7E636A638A638A73CB636994
:102A55005B085B075B075B075B0773EA5B2852E76D
:102A650052E75AE7740B848E848FDF9F6808080C41
:102A7500101000200020011BFFDFFFDFFFDFFFDF5D
:102A8500FFDFFFDFFFDFFFDFFFDFFFDFFFDFFFDF51
:102A9500FFFFFFFFF7DFF7DFFFFFFFFFFFFFFFDEB2
:102AA500DEFCDF1DDEFDDEFDDEFDDEFDDEFDDEFD29
:102AB500DEFDFFFFFFFFFFBEFFDFFFDFFFDFFFDF05
:102AC500FFDFFFDFFFFFBDB79C93FFBFF7DEDE39FA
:102AD500F69BF69BF69BF69BF69BF6BBF69BF6BB29
:102AE500FFBFFFDFDEFDDEFDDEFDDEFDDEFDDEFD23
:102AF500DEFDDF1D7BD0FFFFFFDFFFDFFFDFFFDF39
:102B0500FFDFF77DFFDFFFDFFFDFF75DF69BF6BB3E
:102B1500F6BBF6BBF6BBF6BBF6BBF6BBF6BBF69B48
:102B2500F69BFEDCFFDFDEDDDEFDDEFDDEFDDEFD30
:102B3500DEFDDEFDDEFDD6DCFFDFFFDFFFFFFFFF95
:102B4500FFFFFFDFFFFFFFFF9C52F69BF69BF69B07
:102B5500F69BF69BF69BF69BF69BF69BF69BF69BE8
:102B6500F69BF69BF6BB72EDFFDFDEFDD6DCDF1DC7
:102B7500DF1DDF1DDEFD4A6AFFFFFFFFFFFFFFFFD1
:102B8500FFFFFFFFFFFFFFFFF6BBF69BF69BF69BE4
:102B9500F69BF69BF69BF69BF69BF69BF69BF69BA8
:102BA500F69BF69BF69BF69B72CCFFFFFFFFDEFDC7
:102BB500DEFDDEFDDEFDF7BFFFFFFFFFFFFFFFFFD1
:102BC500FFFFFFFFFFDFF69BF69BF69BF69BF69B51
:102BD500F69BF69BF69BF69BF69BF69BF69BF69B68
:102BE500F69BF69BF69BF69BF69BFFFFFFFFFFFF11
:102BF500DEDBD71CFFDFF7BFFFFFFFFFFFFFFFFF98
:102C0500FFFFFFFFF69BF69BF69BF69BF69BF69B5D
:102C1500F69BF69BF69BF69BF69BF69BFEBCF69BFE
:102C2500F69BF69BF69BF69BF6BBF69CFFFFFFFF1C
:102C3500FFFFF7BFF7BFF7BFFFFFFFFFFFFFFFFF77
:102C4500FFFF9C53D5B8F69BF67BF69BF69BF69B50
:102C5500F69BF69BF69BF69BF69BF69BF69BFEDC9E
:102C6500F69BF69B6A2AF69B9BB0F69BFFFFFFFF40
:102C7500FFFFF79E41E8F7BFFFFFFFFFFFFFFFFFE5
:102C8500FFFFF6BBF69BF69BF69BE619F69BF69BBC
:102C9500F69BF69BF69BF69B622BF69BF69BF69BAB
:102CA500F69BF69BF69BF69BF69BF69B49A8FFFFCA
:102CB500FFFFF7BFF7BFF7BFFFFFFFFFFFFFFFFFF7
:102CC500F77EF6BBF6BBF69BF6BBF6BBF69BF69B13
:102CD500F69BF69BF69BF69BDDF8F69BF69BF6BB03
:102CE500F6BBF69BF69BF69BF69BF69BA412FFFFA5
:102CF500FFDFF7BFF7BFF7BFFFFFFFFFFFFFFFFFD7
:102D0500E67AF69BF6BBF69BCD36F69BF69BF69BD5
:102D1500F69BF69BF69BCD56E619F6BBF69BF6BBE6
:102D2500F69BF69BF69BF69BF69B72ACF69BFFFF1C
:102D350062ECF7BEF7BEF7BFFFFFFFFFFFFFFFFF28
:102D4500F6DCF69BEE7BF69BAC32F69BF69BF69B90
:102D5500CD36CD15CD35C4F582EECD37CD36CD7713
:102D6500F69BF69BF69BF6BCF69BF69BF6BBFFDF48
:102D7500F79FF7BFF7BFF7BFFFFFFFFFFFFFFFFF9E
:102D8500F6BCF69B4947FE9C8B0ECD56CD36CD360F
:102D9500CD36CD56CD36D618CD56C577CD7851C959
:102DA500C557F6BBF69BEE7AF69BF69B59E9F69C62
:102DB500F7BEF7BFF7BFF7BFFFFFFFFFFFFFFFFF3F
:102DC500E65BF69B4926CD3659C99390CD77CD560E
:102DD500C536CD57EEFC6A6BC577CD774168AC74C7
:102DE5005A0AC597C578F69BF67BF69BC4D59BD04A
:102DF500F7BEF7BFF7BFF7BFFFFFFFFFFFFFFFFFFF
:102E0500A453F6DCFEFDCD57B4B472AD6A4C6A4BE3
:102E1500C537FF9DFF7DA493E6DBF75DB578C55605
:102E2500BD36524BC598F6BBCD98F69BF69BF69BE7
:102E3500FF7EF79EF7BFD6FCFFFFFFFFFFFFFFFFFB
:102E4500F69BEE9BE63A9C12A4D5FF7ECDB4EE5AD6
:102E5500EEDCFF9DFF9EFF9DFF9EFF9DF65AFF7ACC
:102E6500F719F65BFF5D6AADC598EE7BF69BF69BA1
:102E7500EE7BF7BFF7BFC61AFFFFFFFFFFFFFFFFA0
:102E8500726CF6BCC578CD98FFBEF69AFF7ACDB4C4
:102E950051C8FF9DFF9DFF9DFF7DFF7DF67BEE39B0
:102EA500EE5AF65BFF9DCE3AC597C577F69BF69B26
:102EB500F6BBF7BEF7BFF79FFFFFFFFFFFFF62AB54
:102EC500F69BEE9BC5986A6CFFBEF65BEE38E67A1C
:102ED500FFBEFF7DFF7DFF7DFF7DFF9EFFFFEE7A3D
:102EE500EE3AF7DFFF9ECDF9CDF9BDB8F69BF69B1F
:102EF500F6BBF7BEF7BFF7BEFFFFFFFFFFFFEE7B99
:102F0500DDD8C557C598628BFF5DFFDFFFDFFFBFCB
:102F1500FF7EFF3CFF1CFEFCFF3CFF5DF73CFF3DD9
:102F2500FF5DFF3DFF5DCE39C557730EF69BF69BE2
:102F3500F69BF71DF7BE9D37FFFFFFFFFFFFF6BCB2
:102F4500EE7BA432C557D598FF1CF6DBFF1CFF3C72
:102F5500FF7DFF5CFF1CF71CFF5DFF5DFF3CFF1C59
:102F6500FF3C728CF6DC6AACB4D6C5B8EE5AF69B5B
:102F7500F69BE67BC67BF7BEFFFFFFFFFFFFF6BBB9
:102F8500F6BCCD779370D5B9FF3DFF1DFF3CFF5DC6
:102F9500FF9DFF7DFF7DFF7CFF9DFF7DFF5CFF3C6F
:102FA500FF3CF73DD6193987CEBCB516C598F69BBB
:102FB500F69BF69BCE7BF79FFFFFFFFFFFFFF6BB60
:102FC500BCD5CD56E65BA493FF5DFF5DFF5DFF9D20
:102FD500FF9EFF9ECDD8FFBFFF9DFF9DFF9DFF9DDF
:102FE500FF9DFF9DDE5A62ACCEBBBDD9BD57F6BB7A
:102FF500F6BBF69BF79EC65AFFFFFFFFFFFFEE7B72
:1030050059A9CD56CDB8DE19E69962AAFF9EFF9E55
:10301500FF9EFF9EFF7EECD7FF9DFF9EFF9EFF9EBE
:10302500FF9DFF9DF77DCE9BCE1AFFFFCDD9C5979E
:10303500F69BF69BF7DFBE7BFFFFFFFFFFFFE61A60
:103045006A4B72ECD679C556DDD9FF9DFF9DFF7E93
:10305500ACF4FF9EFF9EFF9EFF9DFF7EFF7EFF9DC2
:10306500FF9EFF9DFF9EBD57FFFFFF9FCDB9BD98FA
:10307500EEBBF6BBFFFFC67BFFFFFFFFFFFFF69B27
:10308500B4B4FFFFD659D67AD5D9D618FF9EFF9E80
:10309500FF9DFF7DFF9DFF9DFF9DFF9EFF9EFF9E68
:1030A500FF9DFF7DBD36C5B8FFFFFFFFBD98C598E5
:1030B5007B4FF69BC65CBE7CFFFFFFFFCDF8FEBCD9
:1030C500EE5AFFFFDE59D67BD6BCD5FAD5D9FF9E81
:1030D500FF9DEEDCCDD7DE18D619FF9DFF9D8BD069
:1030E500E6BCDE5AD619D67BFFFFEEDCFFBFC598DE
:1030F500C5B8F69BBDB8BE7CFFFFFFFFEE9CCD16A5
:10310500FFDFDE5AD65BD65A730FFFFFFFDEFF9D4A
:10311500FF9EDE9BCDD8DE19C577FF9DFF9DC5D8E7
:10312500FFFF72EDD61AD69BFFFFFFFFFFDFFFDF24
:10313500BD78EE9B9C73C67CFFFFFFFFF6BCCD56AA
:10314500FFBFF69CD67BD6DCFFDFFFDFFFFFB55563
:10315500FFBDE71DFFFFD618D69BF73EFFBEFFFF5D
:10316500FFFFFFFF4A0ACE9BCDD9A514FFFFF7FF4E
:10317500C598DE3ABDB9D6DCFFFFFFFFC53662094B
:10318500FFFF51E9BD57DE9CDEBBFFFFFFFFFFFFE1
:10319500FF9DFFBFFFFF62ACE65BD69BFFBFFFFF56
:1031A500FFFFFFFFF7BE9493FF9FFF7EEEDCFFFF5F
:1031B5005A6BC577C5F9F7BFFFFFFFFFCD77FFFF57
:1031C500FFFFBD37D69BFFBFFFFFFFFFF75DFFFF8B
:1031D500D67BFFDFFFFFFFBED61A522AFFFFFFDFB8
:1031E500F77EFF5EFFDFFFFFFF7EFFFFFFFFEF1CA8
:1031F500F7FFBD77FFFFFFFFFFFFFFFFFFDFFFFFCC
:10320500D69AF79EFFFFFFDFFFDFFFFFDE9AEF5D38
:10321500DE3AFFFFEF5EA4D4FF9FFF7FFFFFE63A94
:10322500D67BE6FCFFFFFF7EFFFFFFFFFFFFFFFFF3
:10323500FFFFBD98FFDFFFFFFFFF9472FFFFEF7EEB
:1032450049C9FFFFDE9AFFDFFFFFFFDFFFFFD6BBA8
:10325500DE7AFFFFDE9AFFFFFFFFEEBCDDD8DE5A08
:103265009412FFFFFFFFFFDFFFFFFFFFFFFFFFFFE1
:08327500FFFFC5B8FFDFFFFFFA
:10423D0075A2047596FFE4F595C2CD900000F0A32C
:10424D00F090080AF0A3F0D2CD9014D81235AA0040
:10425D00000000124DBD1244FC9014E2E4F0A37472
:10426D00A0F074FFA3F0A3F07B807A00E4FDFCFFC7
:10427D00FE124AAEE4900000F0A3F090080AF0A3FD
:10428D00F0900000F0A3F0E490080AF0A3F090087D
:10429D000AE0FEA3E0FFC39404EE94005052EF78C1
:1042AD0005C333CE33CED8F9FFC006C0079000004A
:1042BD00E0FEA3E07805C333CE33CED8F9FDAC06CE
:1042CD009014E2E4F0A37420F0A37401F0A3740041
:1042DD00F0A37402F0D007D0067B207A001248AA12
:1042ED0090080BE004F070A690080AE004F0809EA0
:1042FD00900001E004F07006900000E004F0C3901F
:10430D000001E09405900000E094005003024294F7
:10431D00E4900000F0A3F0E490080AF0A3F09008F8
:10432D000AE0FEA3E0FFC39404EE94005052EF7830
:10433D0005C333CE33CED8F9FFC006C007900000B9
:10434D00E0FEA3E07805C333CE33CED8F9FDAC063D
:10435D009014E2E4F0A37420F0A37401F0A37408A8
:10436D00F0A3740CF0D007D0067B207A001248AA77
:10437D0090080BE004F070A690080AE004F0809E0F
:10438D00900001E004F07006900000E004F0C3908E
:10439D000001E09405900000E094005003024324D6
:0543AD00B2CD024281C7
:10327E00EC4D6011E8497017ED33EC3304600DE44A
:10328E00FCFFFEFD22E933E8330470F80233F0123E
:10329E0033BB58046009E4CC24815006285009023F
:1032AE0033FA2840030233F7C0E0EB4A7044B9808A
:1032BE0006D0E0FB0233E6EF4E701CBD8008EBFF3C
:1032CE00EAFEE9FD80EBE98DF0A4FEE5F00233673E
:1032DE00E9CDF9EAFEEBFFEF89F0A4FCE5F0CE892B
:1032EE00F0A42EFFE435F0CD89F0A42DFEE435F0E8
:1032FE008067EF4E7005BD80D780C3EF8BF0A4AC16
:10330E00F0EE8BF0A42CFCE435F0F8EF8AF0A42C50
:10331E00E5F038FCE433CB8DF0A42CFCE5F03BF863
:10332E00EE8AF0A42CFCE5F038F8E433CF89F0A453
:10333E002CFCE5F038CF3400CE89F0A42FFFE5F059
:10334E003EFEE433C98DF0A42EFEE5F039CD8AF0B1
:10335E00A42FFFE5F03EFEE43DFD33D0E0FB500729
:10336E000BBB000F0233FAEC2CFCEF33FFEE33FEF7
:06337E00ED33FD0233D225
:10338400EDD2E7CD33EC3392D524814006E4FFFE41
:10339400FDFC22FCE4CFCECDCC24E0501174FF80A0
:1033A400EDC3CC13CCCD13CDCE13CECF13CF04703D
:0733B400F030D5DE02359078
:1033BB00E9D2E7C933E833F892D5EDD2E7CD33EC58
:0733CB0033FC5002B2D522D1
:1033D200EC30E7100FBF000C0EBE00080DBD00045C
:1033E2000BEB6014A2D5EB13FCED92E7FD2274FF08
:1033F200FCFDFEFF22E480F8A2D574FF13FC7D8061
:03340200E480EF74
:104B660002423DE493A3F8E493A34003F68001F2E6
:104B760008DFF48029E493A3F85407240CC8C33350
:104B8600C4540F4420C8834004F456800146F6DF1F
:104B9600E4800B0102040810204080901DB3E47EDF
:104BA600019360BCA3FF543F30E509541FFEE49314
:104BB600A360010ECF54C025E060A840B8E493A3DB
:104BC600FAE493A3F8E493A3C8C582C8CAC583CA06
:104BD600F0A3C8C582C8CAC583CADFE9DEE780BEBE
:01327D000050
:10340500BB010689828A83E0225002E722BBFE02C5
:09341500E32289828A83E49322F8
:10341E00BB010CE58229F582E5833AF583E0225063
:10342E0006E92582F8E622BBFE06E92582F8E222AD
:0D343E00E58229F582E5833AF583E49322C7
:10344B00EF8DF0A4A8F0CF8CF0A428CE8DF0A42E95
:02345B00FE224F
:10345D00C5F0F8A3E028F0C5F0F8E58215827002FA
:06346D001583E038F02297
:10347300E88FF0A4CC8BF0A42CFCE98EF0A42CFCF8
:103483008AF0EDA42CFCEA8EF0A4CDA8F08BF0A476
:103493002DCC3825F0FDE98FF0A42CCD35F0FCEBD5
:1034A3008EF0A4FEA9F0EB8FF0A4CFC5F02ECD399A
:0F34B300FEE43CFCEAA42DCE35F0FDE43CFC2207
:1034C20075F008758200EF2FFFEE33FECD33CDCCC1
:1034D20033CCC58233C5829BED9AEC99E582984044
:1034E2000CF582EE9BFEED9AFDEC99FC0FD5F0D621
:1034F200E4CEFBE4CDFAE4CCF9A88222B800C1B94B
:103502000059BA002DEC8BF084CFCECDFCE5F0CB88
:10351200F97818EF2FFFEE33FEED33FDEC33FCEBC1
:1035220033FB10D703994004EB99FB0FD8E5E4F97C
:10353200FA227818EF2FFFEE33FEED33FDEC33FC69
:10354200C933C910D7059BE99A4007EC9BFCE99A5D
:10355200F90FD8E0E4C9FAE4CCFB2275F010EF2FA2
:10356200FFEE33FEED33FDCC33CCC833C810D707A2
:103572009BEC9AE899400AED9BFDEC9AFCE899F8DD
:0E3582000FD5F0DAE4CDFBE4CCFAE4C8F92270
:0E359000C3E49FFFE49EFEE49DFDE49CFC224C
:0C359E00ECF0A3EDF0A3EEF0A3EFF022A0
:1035AA00A8828583F0D083D0821235C11235C11228
:1035BA0035C11235C1E473E493A3C583C5F0C5834D
:1035CA00C8C582C8F0A3C583C5F0C583C8C582C86B
:0135DA0022CE
:0C35DB00A42582F582E5F03583F58322FB
:00000001FF
