:03000000020006F5
:0C000600787FE4F6D8FD7581200200161A
:0301BA001201BD72
:0E01BD0000007F027E247DCEDDFEDEFCDFFA38
:0101CB002211
:0E01CC0000007F177ECD7D78DDFEDEFCDFFAC1
:0101DA002202
:03000300020138BF
:10013800C0D075D000C005C006C0071201BD30B2DE
:1001480006D201B2B1800720B204D200B2B1D00702
:07015800D006D005D0D03223
:0300130002018265
:10018200C0D075D000C005C006C0071201BA20B3A6
:100192000730B204D202B2B1D007D006D005D0D017
:0101A200322A
:10010D00300102C2B01201BDA2B2B392B5A2B29239
:10011D00B41201BA1201BDC2B5C2B4300107120149
:0B012D00CCD2B0C201300002C20022A0
:10015F0030B21B30021820B315C2B01201CC1201FD
:10016F00CC1201CCD2B01201BD1201BD80E2D2B0CF
:03017F00C2022297
:1001A3001201BDD2B5C2B41201BD1201BD1201BD0F
:0701B300C2B5C2B4C2002274
:10009D00EF4E7010ED64014C700AE50F450E7004C3
:1000AD00FE7F0122EF64014E700AED64014C700475
:1000BD00FE7F0222EF4E7008ED4C7004FE7F03228E
:1000CD00EF64014E700CED4C7008EB4A7004FE7F2E
:1000DD000422EF64014E700EED4C700AEB64014A80
:1000ED007004FE7F0522EF4E7012ED64014C700C12
:1000FD00E50F6401450E7004FE7F0622E4FEFF222B
:10001600C2B5C2B4D2B1D2B2D2B3E4F5B275B14070
:10002600D2B3D28AD2AAD2B2C288D2A8D2AFD2B022
:10003600C201C2021201A3A2B2E4FE33FFA2B3E4DC
:10004600FC33FDA201E4FA33FBA200E433750E0093
:10005600F50F12009DEE7037EF24FE601514601543
:1000660014601514601D14601F240570221201A36C
:10007600800C0080C20080BF12010D12015F1201C8
:10008600CC80B412010D80AF12010DC20280A812FD
:0700960001A31201CC80A0C0
:00000001FF
