:0300000002015D9D
:0C015D00787FE4F6D8FD7581280201A42B
:100442007F051202E3C286C2847F041202E3758032
:02045200FF2287
:1002E300EFB40800504A9002F0F82828730203087C
:1002F30002030C02031302031702031E020322026A
:10030300032902032DC2A58002D2A5C2A6C2A72239
:10031300C2A58002D2A5D2A6C2A722C2A58002D2BC
:10032300A5C2A6D2A722C2A58002D2A5D2A6D2A7D1
:0103330022A7
:0C047500AD07AC067F041202E38D80226C
:0C03CC00011D00071600000000000000EA
:0300630002033461
:10033400C0E0C0F0C083C082C0D075D000C000C08F
:1003440001C002C003C004C005C006C00712006695
:100354008F1553AFFB43AF04E51EB401040527D248
:1003640000D007D006D005D004D003D002D001D0ED
:0C03740000D0D0D082D083D0F0D0E03296
:10042E00538EFBE4F5D775D6B8438E1043AF04D286
:04043E00AFF51522DF
:0B048100EF1FAC0670011E4C70F6224D
:1001E900750C05750D01750E047B047D017F0112E7
:1001F90003EC12042EE4F5B2F5B11204421204190B
:100209007FFF7E001204751202688F1D7416252760
:10021900F8A61585180C85190D851A0E851B0F85ED
:100229001C10AB177D107F10120003E527B4060AD6
:10023900E528B40605E4FFFE80047FFF7E00120472
:10024900757F0F120403E528C394074003E4F528DA
:0F025900E527C3940740B0752701E4F52880A876
:10040300EFB51511E4F515752701F5287F07781663
:06041300E4F608DFFC2204
:10045400C0F9A4B0999282F880908880C6C0868E34
:02046400BF7F58
:040466007FE87E03AA
:0B046A00EF1FAC0670011E4C70F62264
:100419007F061202E3E4F5807F071202E390045499
:05042900E493F58022C0
:100380008F118D127F061202E3AF127401A80708C5
:100390008002C333D8FCF5807F071202E3E5119099
:0603A000045493F58022D5
:100003008D0A8B0BAA07120466AF02E4FD1203806C
:100013001204667D01AF0A1203801204667D02AFEB
:100023000B1203801204667D03AF0C1203801204CB
:10003300667D04AF0D1203801204667D05AF0E12B8
:1000430003801204667D06AF0F1203801204667DDF
:0600530007AF100203805C
:0A005900EDB50703AF03227F0F226D
:0503D800011E00C10040
:1000660075B0F0D2C2D2C4AFB0A2C4E43325E0FE6C
:10007600A2C2E4334206EEC4333354C0FE43063F05
:10008600E5B054F0FFEE520775B00FC2C2C2C4AE5F
:10009600B0E5B0540F4FF514E51E14601B14700341
:1000A6000201522402600302015AE514F4700302AD
:1000B600015A751E0102015AE514B4FF03020157E5
:1000C600E5141203A6014A7701367B01227D010E53
:1000D6007E0145B70131BB011DBD0109BE0140D7F7
:1000E600012CDB0118DD0104DE013BE70127EB01F2
:1000F60013ED00FFEE0000014DE4F5138049751382
:10010600018044751302803F751303803A7513040A
:1001160080357513058030751306802B751307809F
:10012600267513088021751309801C75130A80171C
:1001360075130B801275130C800D75130D800875E1
:10014600130E800375130F751E028008E514B4FFA5
:0601560003E4F51EAF13E7
:01015C002280
:0E03DD0001270001280006210000000000009A
:1003EC00E4F527F528C2008F218D228B23850C2460
:0703FC00850D25850E262268
:10026800E528B40703E4F528E527B40700506390B0
:10027800027EF82828730202930202980202A3025F
:1002880002AE0202B90202C40202CEE4F52880429C
:10029800E5156521703C3000398033E5156522701D
:1002A8003130002E8028E515652370263000238024
:1002B8001DE5156524701B3000188012E515B5255D
:1002C8001130000E8008E515B52607300004052812
:0B02D800C2002000037F0F22AF28228D
:100169000201E9E493A3F8E493A34003F68001F2C2
:1001790008DFF48029E493A3F85407240CC8C33397
:10018900C4540F4420C8834004F456800146F6DF66
:10019900E4800B01020408102040809003CCE47E27
:1001A900019360BCA3FF543F30E509541FFEE4935B
:1001B900A360010ECF54C025E060A840B8E493A322
:1001C900FAE493A3F8E493A3C8C582C8CAC583CA4D
:1001D900F0A3C8C582C8CAC583CADFE9DEE780BE05
:0103EB000011
:1003A600D083D082F8E4937012740193700DA3A3E6
:1003B60093F8740193F5828883E4737402936860FA
:0603C600EFA3A3A380DFFA
:00000001FF
